{
  "_format": "hh3-artifact-1",
  "contractName": "TECClaim",
  "sourceName": "contracts/TECClaim.sol",
  "abi": [
    {
      "inputs": [],
      "stateMutability": "nonpayable",
      "type": "constructor"
    },
    {
      "inputs": [
        {
          "internalType": "address",
          "name": "target",
          "type": "address"
        }
      ],
      "name": "AddressEmptyCode",
      "type": "error"
    },
    {
      "inputs": [
        {
          "internalType": "address",
          "name": "implementation",
          "type": "address"
        }
      ],
      "name": "ERC1967InvalidImplementation",
      "type": "error"
    },
    {
      "inputs": [],
      "name": "ERC1967NonPayable",
      "type": "error"
    },
    {
      "inputs": [],
      "name": "ErrorAddressBlocked",
      "type": "error"
    },
    {
      "inputs": [],
      "name": "ErrorAlreadyActive",
      "type": "error"
    },
    {
      "inputs": [],
      "name": "ErrorCannotBurnZero",
      "type": "error"
    },
    {
      "inputs": [],
      "name": "ErrorCannotRedeemZero",
      "type": "error"
    },
    {
      "inputs": [],
      "name": "ErrorClaimDeadlineNotReachedYet",
      "type": "error"
    },
    {
      "inputs": [],
      "name": "ErrorInsufficientBalance",
      "type": "error"
    },
    {
      "inputs": [],
      "name": "ErrorNotActive",
      "type": "error"
    },
    {
      "inputs": [],
      "name": "ErrorNotConfigured",
      "type": "error"
    },
    {
      "inputs": [],
      "name": "FailedCall",
      "type": "error"
    },
    {
      "inputs": [],
      "name": "InvalidInitialization",
      "type": "error"
    },
    {
      "inputs": [],
      "name": "NotInitializing",
      "type": "error"
    },
    {
      "inputs": [
        {
          "internalType": "address",
          "name": "owner",
          "type": "address"
        }
      ],
      "name": "OwnableInvalidOwner",
      "type": "error"
    },
    {
      "inputs": [
        {
          "internalType": "address",
          "name": "account",
          "type": "address"
        }
      ],
      "name": "OwnableUnauthorizedAccount",
      "type": "error"
    },
    {
      "inputs": [
        {
          "internalType": "address",
          "name": "token",
          "type": "address"
        }
      ],
      "name": "SafeERC20FailedOperation",
      "type": "error"
    },
    {
      "inputs": [],
      "name": "UUPSUnauthorizedCallContext",
      "type": "error"
    },
    {
      "inputs": [
        {
          "internalType": "bytes32",
          "name": "slot",
          "type": "bytes32"
        }
      ],
      "name": "UUPSUnsupportedProxiableUUID",
      "type": "error"
    },
    {
      "anonymous": false,
      "inputs": [
        {
          "indexed": true,
          "internalType": "address",
          "name": "user",
          "type": "address"
        }
      ],
      "name": "AddressBlocked",
      "type": "event"
    },
    {
      "anonymous": false,
      "inputs": [
        {
          "indexed": true,
          "internalType": "address",
          "name": "user",
          "type": "address"
        }
      ],
      "name": "AddressUnblocked",
      "type": "event"
    },
    {
      "anonymous": false,
      "inputs": [
        {
          "indexed": true,
          "internalType": "address",
          "name": "user",
          "type": "address"
        },
        {
          "indexed": false,
          "internalType": "uint256",
          "name": "amount",
          "type": "uint256"
        }
      ],
      "name": "Claim",
      "type": "event"
    },
    {
      "anonymous": false,
      "inputs": [
        {
          "indexed": true,
          "internalType": "address",
          "name": "owner",
          "type": "address"
        }
      ],
      "name": "ClaimRemaining",
      "type": "event"
    },
    {
      "anonymous": false,
      "inputs": [
        {
          "indexed": false,
          "internalType": "uint64",
          "name": "version",
          "type": "uint64"
        }
      ],
      "name": "Initialized",
      "type": "event"
    },
    {
      "anonymous": false,
      "inputs": [
        {
          "indexed": true,
          "internalType": "address",
          "name": "previousOwner",
          "type": "address"
        },
        {
          "indexed": true,
          "internalType": "address",
          "name": "newOwner",
          "type": "address"
        }
      ],
      "name": "OwnershipTransferred",
      "type": "event"
    },
    {
      "anonymous": false,
      "inputs": [
        {
          "indexed": true,
          "internalType": "address",
          "name": "implementation",
          "type": "address"
        }
      ],
      "name": "Upgraded",
      "type": "event"
    },
    {
      "inputs": [],
      "name": "UPGRADE_INTERFACE_VERSION",
      "outputs": [
        {
          "internalType": "string",
          "name": "",
          "type": "string"
        }
      ],
      "stateMutability": "view",
      "type": "function"
    },
    {
      "inputs": [
        {
          "internalType": "address[]",
          "name": "users",
          "type": "address[]"
        }
      ],
      "name": "blockAddresses",
      "outputs": [],
      "stateMutability": "nonpayable",
      "type": "function"
    },
    {
      "inputs": [
        {
          "internalType": "address",
          "name": "",
          "type": "address"
        }
      ],
      "name": "blocklist",
      "outputs": [
        {
          "internalType": "bool",
          "name": "",
          "type": "bool"
        }
      ],
      "stateMutability": "view",
      "type": "function"
    },
    {
      "inputs": [
        {
          "internalType": "address",
          "name": "_owner",
          "type": "address"
        },
        {
          "internalType": "uint256",
          "name": "_amount",
          "type": "uint256"
        }
      ],
      "name": "burn",
      "outputs": [],
      "stateMutability": "nonpayable",
      "type": "function"
    },
    {
      "inputs": [],
      "name": "claim",
      "outputs": [],
      "stateMutability": "nonpayable",
      "type": "function"
    },
    {
      "inputs": [],
      "name": "claimDeadline",
      "outputs": [
        {
          "internalType": "uint64",
          "name": "",
          "type": "uint64"
        }
      ],
      "stateMutability": "view",
      "type": "function"
    },
    {
      "inputs": [],
      "name": "claimRemaining",
      "outputs": [],
      "stateMutability": "nonpayable",
      "type": "function"
    },
    {
      "inputs": [
        {
          "internalType": "address",
          "name": "initialOwner",
          "type": "address"
        },
        {
          "internalType": "contract IMiniMeToken",
          "name": "_token",
          "type": "address"
        },
        {
          "internalType": "contract IERC20[]",
          "name": "_redeemableTokens",
          "type": "address[]"
        },
        {
          "internalType": "uint64",
          "name": "_claimDeadline",
          "type": "uint64"
        }
      ],
      "name": "initialize",
      "outputs": [],
      "stateMutability": "nonpayable",
      "type": "function"
    },
    {
      "inputs": [],
      "name": "owner",
      "outputs": [
        {
          "internalType": "address",
          "name": "",
          "type": "address"
        }
      ],
      "stateMutability": "view",
      "type": "function"
    },
    {
      "inputs": [],
      "name": "proxiableUUID",
      "outputs": [
        {
          "internalType": "bytes32",
          "name": "",
          "type": "bytes32"
        }
      ],
      "stateMutability": "view",
      "type": "function"
    },
    {
      "inputs": [
        {
          "internalType": "uint256",
          "name": "",
          "type": "uint256"
        }
      ],
      "name": "redeemableTokens",
      "outputs": [
        {
          "internalType": "contract IERC20",
          "name": "",
          "type": "address"
        }
      ],
      "stateMutability": "view",
      "type": "function"
    },
    {
      "inputs": [],
      "name": "renounceOwnership",
      "outputs": [],
      "stateMutability": "nonpayable",
      "type": "function"
    },
    {
      "inputs": [
        {
          "internalType": "address[]",
          "name": "from",
          "type": "address[]"
        }
      ],
      "name": "startClaim",
      "outputs": [],
      "stateMutability": "nonpayable",
      "type": "function"
    },
    {
      "inputs": [],
      "name": "state",
      "outputs": [
        {
          "internalType": "enum State",
          "name": "",
          "type": "uint8"
        }
      ],
      "stateMutability": "view",
      "type": "function"
    },
    {
      "inputs": [],
      "name": "token",
      "outputs": [
        {
          "internalType": "contract IMiniMeToken",
          "name": "",
          "type": "address"
        }
      ],
      "stateMutability": "view",
      "type": "function"
    },
    {
      "inputs": [
        {
          "internalType": "address",
          "name": "newOwner",
          "type": "address"
        }
      ],
      "name": "transferOwnership",
      "outputs": [],
      "stateMutability": "nonpayable",
      "type": "function"
    },
    {
      "inputs": [
        {
          "internalType": "address[]",
          "name": "users",
          "type": "address[]"
        }
      ],
      "name": "unblockAddresses",
      "outputs": [],
      "stateMutability": "nonpayable",
      "type": "function"
    },
    {
      "inputs": [
        {
          "internalType": "address",
          "name": "newImplementation",
          "type": "address"
        },
        {
          "internalType": "bytes",
          "name": "data",
          "type": "bytes"
        }
      ],
      "name": "upgradeToAndCall",
      "outputs": [],
      "stateMutability": "payable",
      "type": "function"
    }
  ],
  "bytecode": "0x60a060405230608052348015610013575f5ffd5b5061001c610021565b6100d3565b7ff0c57e16840df040f15088dc2f81fe391c3923bec73e23a9662efc9c229c6a00805468010000000000000000900460ff16156100715760405163f92ee8a960e01b815260040160405180910390fd5b80546001600160401b03908116146100d05780546001600160401b0319166001600160401b0390811782556040519081527fc7f505b2f371ae2175ee4913f4499e1f2633a7b5936321eed1cdaeb6115181d29060200160405180910390a15b50565b6080516119be6100f95f395f8181610f6901528181610f9201526110d101526119be5ff3fe608060405260043610610105575f3560e01c8063ad3cb1cc11610092578063e5c7160b11610062578063e5c7160b146102ec578063f2fde38b1461032a578063f508ee5b14610349578063f5af5c5d14610368578063fc0c546a14610387575f5ffd5b8063ad3cb1cc14610257578063c01c1ca314610294578063c19d93fb146102a8578063c64c8849146102cd575f5ffd5b8063715018a6116100d8578063715018a61461019657806385d4787b146101aa5780638da5cb5b146101c95780639b0e2e86146102195780639dc29fac14610238575f5ffd5b80633ba86c44146101095780634e71d92d1461014b5780634f1ef2861461016157806352d1902d14610174575b5f5ffd5b348015610114575f5ffd5b505f5461012e90600160a81b90046001600160401b031681565b6040516001600160401b0390911681526020015b60405180910390f35b348015610156575f5ffd5b5061015f6103aa565b005b61015f61016f3660046115ad565b6106e4565b34801561017f575f5ffd5b50610188610703565b604051908152602001610142565b3480156101a1575f5ffd5b5061015f61071e565b3480156101b5575f5ffd5b5061015f6101c4366004611652565b610731565b3480156101d4575f5ffd5b507f9016d09d72d40fdae2fd8ceac6b6234c7706214fd39c1cd1e609a0528c199300546001600160a01b03165b6040516001600160a01b039091168152602001610142565b348015610224575f5ffd5b5061015f610233366004611652565b6107ff565b348015610243575f5ffd5b5061015f6102523660046116c1565b6108c7565b348015610262575f5ffd5b50610287604051806040016040528060058152602001640352e302e360dc1b81525081565b60405161014291906116eb565b34801561029f575f5ffd5b5061015f61097e565b3480156102b3575f5ffd5b505f546102c09060ff1681565b6040516101429190611734565b3480156102d8575f5ffd5b5061015f6102e7366004611652565b610ad5565b3480156102f7575f5ffd5b5061031a61030636600461175a565b60026020525f908152604090205460ff1681565b6040519015158152602001610142565b348015610335575f5ffd5b5061015f61034436600461175a565b610c69565b348015610354575f5ffd5b5061015f610363366004611790565b610cab565b348015610373575f5ffd5b50610201610382366004611879565b610ed7565b348015610392575f5ffd5b505f546102019061010090046001600160a01b031681565b60025f5460ff1660038111156103c2576103c2611720565b146103e057604051636416bf0f60e11b815260040160405180910390fd5b335f9081526002602052604090205460ff16156104105760405163524929c760e01b815260040160405180910390fd5b5f80546040516370a0823160e01b81523360048201526101009091046001600160a01b0316906370a0823190602401602060405180830381865afa15801561045a573d5f5f3e3d5ffd5b505050506040513d601f19601f8201168201806040525081019061047e9190611890565b90505f5f60019054906101000a90046001600160a01b03166001600160a01b03166318160ddd6040518163ffffffff1660e01b8152600401602060405180830381865afa1580156104d1573d5f5f3e3d5ffd5b505050506040513d601f19601f820116820180604052508101906104f59190611890565b90505f5f5f845f0361051a5760405163b7beca1d60e01b815260040160405180910390fd5b5f5b6001548110156106115760018181548110610539576105396118a7565b5f918252602090912001546040516370a0823160e01b81523060048201526001600160a01b03909116906370a0823190602401602060405180830381865afa158015610587573d5f5f3e3d5ffd5b505050506040513d601f19601f820116820180604052508101906105ab9190611890565b9150846105b883886118cf565b6105c291906118e6565b93506105ce8484611905565b92508315610609576106093385600184815481106105ee576105ee6118a7565b5f918252602090912001546001600160a01b03169190610eff565b60010161051c565b50815f03610632576040516343cc6e4560e01b815260040160405180910390fd5b5f546040516369e73bff60e11b8152336004820152602481018790526101009091046001600160a01b03169063d3ce77fe906044016020604051808303815f875af1158015610683573d5f5f3e3d5ffd5b505050506040513d601f19601f820116820180604052508101906106a79190611918565b5060405185815233907f47cee97cb7acd717b3c0aa1435d004cd5b3c8c57d70dbceb4e4458bbd60e39d49060200160405180910390a25050505050565b6106ec610f5e565b6106f582611002565b6106ff828261100a565b5050565b5f61070c6110c6565b505f5160206119695f395f51905f5290565b61072661110f565b61072f5f61116a565b565b61073961110f565b5f5b818110156107fa57600160025f85858581811061075a5761075a6118a7565b905060200201602081019061076f919061175a565b6001600160a01b0316815260208101919091526040015f20805460ff19169115159190911790558282828181106107a8576107a86118a7565b90506020020160208101906107bd919061175a565b6001600160a01b03167f71fa9c99da9552de60a9ccf693f5a91456cbb8c205c8e532b1f55339903543cf60405160405180910390a260010161073b565b505050565b61080761110f565b5f5b818110156107fa575f60025f858585818110610827576108276118a7565b905060200201602081019061083c919061175a565b6001600160a01b0316815260208101919091526040015f20805460ff1916911515919091179055828282818110610875576108756118a7565b905060200201602081019061088a919061175a565b6001600160a01b03167f385b21b54e2348e690dec29e9741026142b02eaabfcc2fcb676cebcb7cd1653460405160405180910390a2600101610809565b6108cf61110f565b60015f5460ff1660038111156108e7576108e7611720565b1461090557604051635bcca2f360e11b815260040160405180910390fd5b5f546040516369e73bff60e11b81526001600160a01b038481166004830152602482018490526101009092049091169063d3ce77fe906044016020604051808303815f875af115801561095a573d5f5f3e3d5ffd5b505050506040513d601f19601f820116820180604052508101906107fa9190611918565b61098661110f565b60025f5460ff16600381111561099e5761099e611720565b146109bc57604051636416bf0f60e11b815260040160405180910390fd5b5f54600160a81b90046001600160401b03164210156109ee576040516313166da160e01b815260040160405180910390fd5b5f5b600154811015610a9e57610a963360018381548110610a1157610a116118a7565b5f918252602090912001546040516370a0823160e01b81523060048201526001600160a01b03909116906370a0823190602401602060405180830381865afa158015610a5f573d5f5f3e3d5ffd5b505050506040513d601f19601f82011682018060405250810190610a839190611890565b600184815481106105ee576105ee6118a7565b6001016109f0565b505f805460ff1916600317815560405133917ffe1dbbfc69480eb67c72308db15c1104586dac34d43ef78cda6c4851dbb254b591a2565b610add61110f565b60015f5460ff166003811115610af557610af5611720565b14610b1357604051631c17e3b760e31b815260040160405180910390fd5b5f5b600154811015610c58575f5b82811015610c4f575f60018381548110610b3d57610b3d6118a7565b5f918252602090912001546001600160a01b03166370a08231868685818110610b6857610b686118a7565b9050602002016020810190610b7d919061175a565b6040516001600160e01b031960e084901b1681526001600160a01b039091166004820152602401602060405180830381865afa158015610bbf573d5f5f3e3d5ffd5b505050506040513d601f19601f82011682018060405250810190610be39190611890565b90508015610c4657610c46858584818110610c0057610c006118a7565b9050602002016020810190610c15919061175a565b308360018781548110610c2a57610c2a6118a7565b5f918252602090912001546001600160a01b03169291906111da565b50600101610b21565b50600101610b15565b50505f805460ff1916600217905550565b610c7161110f565b6001600160a01b038116610c9f57604051631e4fbdf760e01b81525f60048201526024015b60405180910390fd5b610ca88161116a565b50565b5f610cb4611219565b805490915060ff600160401b82041615906001600160401b03165f81158015610cda5750825b90505f826001600160401b03166001148015610cf55750303b155b905081158015610d03575080155b15610d215760405163f92ee8a960e01b815260040160405180910390fd5b845467ffffffffffffffff191660011785558315610d4b57845460ff60401b1916600160401b1785555b610d5489611243565b610d5c611254565b604051636638c08760e01b815260a06004820152601560a482015274151150c814da1d5d191bdddb8814db985c1cda1bdd605a1b60c48201526012602482015260e06044820152600760e4820152660544543534e41560cc1b6101048201524360648201525f60848201526001600160a01b03891690636638c08790610124016020604051808303815f875af1158015610df8573d5f5f3e3d5ffd5b505050506040513d601f19601f82011682018060405250810190610e1c9190611937565b5f80546001600160a01b039290921661010002610100600160a81b03199092169190911790558651610e559060019060208a01906114de565b505f805460ff196001600160401b038916600160a81b021660ff67ffffffffffffffff60a81b01199091161760011790558315610ecc57845460ff60401b19168555604051600181527fc7f505b2f371ae2175ee4913f4499e1f2633a7b5936321eed1cdaeb6115181d29060200160405180910390a15b505050505050505050565b60018181548110610ee6575f80fd5b5f918252602090912001546001600160a01b0316905081565b6040516001600160a01b038381166024830152604482018390526107fa91859182169063a9059cbb906064015b604051602081830303815290604052915060e01b6020820180516001600160e01b03838183161783525050505061125c565b306001600160a01b037f0000000000000000000000000000000000000000000000000000000000000000161480610fe457507f00000000000000000000000000000000000000000000000000000000000000006001600160a01b0316610fd85f5160206119695f395f51905f52546001600160a01b031690565b6001600160a01b031614155b1561072f5760405163703e46dd60e11b815260040160405180910390fd5b610ca861110f565b816001600160a01b03166352d1902d6040518163ffffffff1660e01b8152600401602060405180830381865afa925050508015611064575060408051601f3d908101601f1916820190925261106191810190611890565b60015b61108c57604051634c9c8ce360e01b81526001600160a01b0383166004820152602401610c96565b5f5160206119695f395f51905f5281146110bc57604051632a87526960e21b815260048101829052602401610c96565b6107fa83836112c8565b306001600160a01b037f0000000000000000000000000000000000000000000000000000000000000000161461072f5760405163703e46dd60e11b815260040160405180910390fd5b336111417f9016d09d72d40fdae2fd8ceac6b6234c7706214fd39c1cd1e609a0528c199300546001600160a01b031690565b6001600160a01b03161461072f5760405163118cdaa760e01b8152336004820152602401610c96565b7f9016d09d72d40fdae2fd8ceac6b6234c7706214fd39c1cd1e609a0528c19930080546001600160a01b031981166001600160a01b03848116918217845560405192169182907f8be0079c531659141344cd1fd0a4f28419497f9722a3daafe3b4186f6b6457e0905f90a3505050565b6040516001600160a01b0384811660248301528381166044830152606482018390526112139186918216906323b872dd90608401610f2c565b50505050565b5f807ff0c57e16840df040f15088dc2f81fe391c3923bec73e23a9662efc9c229c6a005b92915050565b61124b61131d565b610ca881611342565b61072f61131d565b5f5f60205f8451602086015f885af18061127b576040513d5f823e3d81fd5b50505f513d9150811561129257806001141561129f565b6001600160a01b0384163b155b1561121357604051635274afe760e01b81526001600160a01b0385166004820152602401610c96565b6112d18261134a565b6040516001600160a01b038316907fbc7cd75a20ee27fd9adebab32041f755214dbc6bffa90cc0225b39da2e5c2d3b905f90a2805115611315576107fa82826113ad565b6106ff61141f565b61132561143e565b61072f57604051631afcd79f60e31b815260040160405180910390fd5b610c7161131d565b806001600160a01b03163b5f0361137f57604051634c9c8ce360e01b81526001600160a01b0382166004820152602401610c96565b5f5160206119695f395f51905f5280546001600160a01b0319166001600160a01b0392909216919091179055565b60605f5f846001600160a01b0316846040516113c99190611952565b5f60405180830381855af49150503d805f8114611401576040519150601f19603f3d011682016040523d82523d5f602084013e611406565b606091505b5091509150611416858383611457565b95945050505050565b341561072f5760405163b398979f60e01b815260040160405180910390fd5b5f611447611219565b54600160401b900460ff16919050565b60608261146c57611467826114b6565b6114af565b815115801561148357506001600160a01b0384163b155b156114ac57604051639996b31560e01b81526001600160a01b0385166004820152602401610c96565b50805b9392505050565b8051156114c557805160208201fd5b60405163d6bda27560e01b815260040160405180910390fd5b828054828255905f5260205f20908101928215611531579160200282015b8281111561153157825182546001600160a01b0319166001600160a01b039091161782556020909201916001909101906114fc565b5061153d929150611541565b5090565b5b8082111561153d575f8155600101611542565b6001600160a01b0381168114610ca8575f5ffd5b634e487b7160e01b5f52604160045260245ffd5b604051601f8201601f191681016001600160401b03811182821017156115a5576115a5611569565b604052919050565b5f5f604083850312156115be575f5ffd5b82356115c981611555565b915060208301356001600160401b038111156115e3575f5ffd5b8301601f810185136115f3575f5ffd5b80356001600160401b0381111561160c5761160c611569565b61161f601f8201601f191660200161157d565b818152866020838501011115611633575f5ffd5b816020840160208301375f602083830101528093505050509250929050565b5f5f60208385031215611663575f5ffd5b82356001600160401b03811115611678575f5ffd5b8301601f81018513611688575f5ffd5b80356001600160401b0381111561169d575f5ffd5b8560208260051b84010111156116b1575f5ffd5b6020919091019590945092505050565b5f5f604083850312156116d2575f5ffd5b82356116dd81611555565b946020939093013593505050565b602081525f82518060208401528060208501604085015e5f604082850101526040601f19601f83011684010191505092915050565b634e487b7160e01b5f52602160045260245ffd5b602081016004831061175457634e487b7160e01b5f52602160045260245ffd5b91905290565b5f6020828403121561176a575f5ffd5b81356114af81611555565b80356001600160401b038116811461178b575f5ffd5b919050565b5f5f5f5f608085870312156117a3575f5ffd5b84356117ae81611555565b935060208501356117be81611555565b925060408501356001600160401b038111156117d8575f5ffd5b8501601f810187136117e8575f5ffd5b80356001600160401b0381111561180157611801611569565b8060051b6118116020820161157d565b9182526020818401810192908101908a84111561182c575f5ffd5b6020850194505b8385101561185a578435925061184883611555565b82825260209485019490910190611833565b809650505050505061186e60608601611775565b905092959194509250565b5f60208284031215611889575f5ffd5b5035919050565b5f602082840312156118a0575f5ffd5b5051919050565b634e487b7160e01b5f52603260045260245ffd5b634e487b7160e01b5f52601160045260245ffd5b808202811582820484141761123d5761123d6118bb565b5f8261190057634e487b7160e01b5f52601260045260245ffd5b500490565b8082018082111561123d5761123d6118bb565b5f60208284031215611928575f5ffd5b815180151581146114af575f5ffd5b5f60208284031215611947575f5ffd5b81516114af81611555565b5f82518060208501845e5f92019182525091905056fe360894a13ba1a3210667c828492db98dca3e2076cc3735a920a3ca505d382bbca2646970667358221220ad40f561771d68b2044f8b752574fa9d3e1d16c5140ba913d7acac9d1d767b8064736f6c634300081c0033",
  "linkReferences": {},
  "deployedLinkReferences": {},
  "immutableReferences": {
    "482": [
      {
        "length": 32,
        "start": 3945
      },
      {
        "length": 32,
        "start": 3986
      },
      {
        "length": 32,
        "start": 4305
      }
    ]
  },
  "inputSourceName": "project/contracts/TECClaim.sol",
  "buildInfoId": "solc-0_8_28-156c332553929298e79bcffb1f8968acc7b73718"
}