{
  "_format": "hh3-artifact-1",
  "contractName": "TECClaimFactory",
  "sourceName": "contracts/TECClaimFactory.sol",
  "abi": [
    {
      "inputs": [
        {
          "internalType": "address",
          "name": "_implementation",
          "type": "address"
        }
      ],
      "stateMutability": "nonpayable",
      "type": "constructor"
    },
    {
      "anonymous": false,
      "inputs": [
        {
          "indexed": true,
          "internalType": "address",
          "name": "proxy",
          "type": "address"
        },
        {
          "indexed": true,
          "internalType": "address",
          "name": "implementation",
          "type": "address"
        }
      ],
      "name": "ProxyCreated",
      "type": "event"
    },
    {
      "inputs": [
        {
          "internalType": "address",
          "name": "initialOwner",
          "type": "address"
        },
        {
          "internalType": "contract IMiniMeToken",
          "name": "token",
          "type": "address"
        },
        {
          "internalType": "contract IERC20[]",
          "name": "redeemableTokens",
          "type": "address[]"
        },
        {
          "internalType": "uint64",
          "name": "claimDeadline",
          "type": "uint64"
        }
      ],
      "name": "create",
      "outputs": [
        {
          "internalType": "address",
          "name": "proxy",
          "type": "address"
        }
      ],
      "stateMutability": "nonpayable",
      "type": "function"
    },
    {
      "inputs": [],
      "name": "implementation",
      "outputs": [
        {
          "internalType": "address",
          "name": "",
          "type": "address"
        }
      ],
      "stateMutability": "view",
      "type": "function"
    }
  ],
  "bytecode": "0x60a0604052348015600e575f5ffd5b5060405161083c38038061083c833981016040819052602b91603b565b6001600160a01b03166080526066565b5f60208284031215604a575f5ffd5b81516001600160a01b0381168114605f575f5ffd5b9392505050565b6080516107b261008a5f395f8181603d0152818160d2015261012601526107b25ff3fe608060405234801561000f575f5ffd5b5060043610610034575f3560e01c80635c60da1b14610038578063b5ff5bd71461007b575b5f5ffd5b61005f7f000000000000000000000000000000000000000000000000000000000000000081565b6040516001600160a01b03909116815260200160405180910390f35b61005f6100893660046101ec565b5f5f858585856040516024016100a294939291906102ed565b60408051601f198184030181529181526020820180516001600160e01b031663f508ee5b60e01b179052519091507f00000000000000000000000000000000000000000000000000000000000000009082906100fd9061018d565b610108929190610369565b604051809103905ff080158015610121573d5f5f3e3d5ffd5b5091507f00000000000000000000000000000000000000000000000000000000000000006001600160a01b0316826001600160a01b03167f9678a1e87ca9f1a37dc659a97b39d812d98cd236947e1b53b3d0d6fd346acb6e60405160405180910390a350949350505050565b6103cf806103ae83390190565b6001600160a01b03811681146101ae575f5ffd5b50565b634e487b7160e01b5f52604160045260245ffd5b80356101d08161019a565b919050565b803567ffffffffffffffff811681146101d0575f5ffd5b5f5f5f5f608085870312156101ff575f5ffd5b843561020a8161019a565b9350602085013561021a8161019a565b9250604085013567ffffffffffffffff811115610235575f5ffd5b8501601f81018713610245575f5ffd5b803567ffffffffffffffff81111561025f5761025f6101b1565b8060051b604051601f19603f830116810181811067ffffffffffffffff8211171561028c5761028c6101b1565b60405291825260208184018101929081018a8411156102a9575f5ffd5b6020850194505b838510156102cf576102c1856101c5565b8152602094850194016102b0565b5094506102e292505050606086016101d5565b905092959194509250565b6001600160a01b038581168252841660208083019190915260806040830181905284519083018190525f9185019060a0840190835b818110156103495783516001600160a01b0316835260209384019390920191600101610322565b5050809250505067ffffffffffffffff8316606083015295945050505050565b60018060a01b0383168152604060208201525f82518060408401528060208501606085015e5f606082850101526060601f19601f830116840101915050939250505056fe60806040526040516103cf3803806103cf8339810160408190526100229161023b565b61002c8282610033565b5050610320565b61003c82610091565b6040516001600160a01b038316907fbc7cd75a20ee27fd9adebab32041f755214dbc6bffa90cc0225b39da2e5c2d3b905f90a280511561008557610080828261010c565b505050565b61008d61017f565b5050565b806001600160a01b03163b5f036100cb57604051634c9c8ce360e01b81526001600160a01b03821660048201526024015b60405180910390fd5b7f360894a13ba1a3210667c828492db98dca3e2076cc3735a920a3ca505d382bbc80546001600160a01b0319166001600160a01b0392909216919091179055565b60605f5f846001600160a01b031684604051610128919061030a565b5f60405180830381855af49150503d805f8114610160576040519150601f19603f3d011682016040523d82523d5f602084013e610165565b606091505b5090925090506101768583836101a0565b95945050505050565b341561019e5760405163b398979f60e01b815260040160405180910390fd5b565b6060826101b5576101b0826101ff565b6101f8565b81511580156101cc57506001600160a01b0384163b155b156101f557604051639996b31560e01b81526001600160a01b03851660048201526024016100c2565b50805b9392505050565b80511561020e57805160208201fd5b60405163d6bda27560e01b815260040160405180910390fd5b634e487b7160e01b5f52604160045260245ffd5b5f5f6040838503121561024c575f5ffd5b82516001600160a01b0381168114610262575f5ffd5b60208401519092506001600160401b0381111561027d575f5ffd5b8301601f8101851361028d575f5ffd5b80516001600160401b038111156102a6576102a6610227565b604051601f8201601f19908116603f011681016001600160401b03811182821017156102d4576102d4610227565b6040528181528282016020018710156102eb575f5ffd5b8160208401602083015e5f602083830101528093505050509250929050565b5f82518060208501845e5f920191825250919050565b60a38061032c5f395ff3fe6080604052600a600c565b005b60186014601a565b6050565b565b5f604b7f360894a13ba1a3210667c828492db98dca3e2076cc3735a920a3ca505d382bbc546001600160a01b031690565b905090565b365f5f375f5f365f845af43d5f5f3e8080156069573d5ff35b3d5ffdfea26469706673582212205e6651e5b5622ad9a1a73cd5503314ac78d5f519460b706ba258f1ead6bb354c64736f6c634300081c0033a2646970667358221220170e1ea38656765dc8c089655a3138218f65f6957398b20ac9b5d78627536c6864736f6c634300081c0033",
  "linkReferences": {},
  "deployedLinkReferences": {},
  "immutableReferences": {
    "2701": [
      {
        "length": 32,
        "start": 61
      },
      {
        "length": 32,
        "start": 210
      },
      {
        "length": 32,
        "start": 294
      }
    ]
  },
  "inputSourceName": "project/contracts/TECClaimFactory.sol",
  "buildInfoId": "solc-0_8_28-f55ba86bf6fc156d6c49321d7910533ec2689e5c"
}