{
  "_format": "hh3-artifact-1",
  "contractName": "TECClaim",
  "sourceName": "contracts/TECClaim.sol",
  "abi": [
    {
      "inputs": [],
      "stateMutability": "nonpayable",
      "type": "constructor"
    },
    {
      "inputs": [
        {
          "internalType": "address",
          "name": "target",
          "type": "address"
        }
      ],
      "name": "AddressEmptyCode",
      "type": "error"
    },
    {
      "inputs": [
        {
          "internalType": "address",
          "name": "implementation",
          "type": "address"
        }
      ],
      "name": "ERC1967InvalidImplementation",
      "type": "error"
    },
    {
      "inputs": [],
      "name": "ERC1967NonPayable",
      "type": "error"
    },
    {
      "inputs": [],
      "name": "ErrorAddressBlocked",
      "type": "error"
    },
    {
      "inputs": [],
      "name": "ErrorAlreadyActive",
      "type": "error"
    },
    {
      "inputs": [],
      "name": "ErrorCannotBurnZero",
      "type": "error"
    },
    {
      "inputs": [],
      "name": "ErrorCannotRedeemZero",
      "type": "error"
    },
    {
      "inputs": [],
      "name": "ErrorClaimDeadlineNotReachedYet",
      "type": "error"
    },
    {
      "inputs": [],
      "name": "ErrorInsufficientBalance",
      "type": "error"
    },
    {
      "inputs": [],
      "name": "ErrorNotActive",
      "type": "error"
    },
    {
      "inputs": [],
      "name": "ErrorNotConfigured",
      "type": "error"
    },
    {
      "inputs": [],
      "name": "FailedCall",
      "type": "error"
    },
    {
      "inputs": [],
      "name": "InvalidInitialization",
      "type": "error"
    },
    {
      "inputs": [],
      "name": "NotInitializing",
      "type": "error"
    },
    {
      "inputs": [
        {
          "internalType": "address",
          "name": "owner",
          "type": "address"
        }
      ],
      "name": "OwnableInvalidOwner",
      "type": "error"
    },
    {
      "inputs": [
        {
          "internalType": "address",
          "name": "account",
          "type": "address"
        }
      ],
      "name": "OwnableUnauthorizedAccount",
      "type": "error"
    },
    {
      "inputs": [
        {
          "internalType": "address",
          "name": "token",
          "type": "address"
        }
      ],
      "name": "SafeERC20FailedOperation",
      "type": "error"
    },
    {
      "inputs": [],
      "name": "UUPSUnauthorizedCallContext",
      "type": "error"
    },
    {
      "inputs": [
        {
          "internalType": "bytes32",
          "name": "slot",
          "type": "bytes32"
        }
      ],
      "name": "UUPSUnsupportedProxiableUUID",
      "type": "error"
    },
    {
      "anonymous": false,
      "inputs": [
        {
          "indexed": true,
          "internalType": "address",
          "name": "user",
          "type": "address"
        }
      ],
      "name": "AddressBlocked",
      "type": "event"
    },
    {
      "anonymous": false,
      "inputs": [
        {
          "indexed": true,
          "internalType": "address",
          "name": "user",
          "type": "address"
        }
      ],
      "name": "AddressUnblocked",
      "type": "event"
    },
    {
      "anonymous": false,
      "inputs": [
        {
          "indexed": true,
          "internalType": "address",
          "name": "user",
          "type": "address"
        },
        {
          "indexed": false,
          "internalType": "uint256",
          "name": "amount",
          "type": "uint256"
        }
      ],
      "name": "Claim",
      "type": "event"
    },
    {
      "anonymous": false,
      "inputs": [
        {
          "indexed": true,
          "internalType": "address",
          "name": "owner",
          "type": "address"
        }
      ],
      "name": "ClaimRemaining",
      "type": "event"
    },
    {
      "anonymous": false,
      "inputs": [
        {
          "indexed": false,
          "internalType": "uint64",
          "name": "version",
          "type": "uint64"
        }
      ],
      "name": "Initialized",
      "type": "event"
    },
    {
      "anonymous": false,
      "inputs": [
        {
          "indexed": true,
          "internalType": "address",
          "name": "previousOwner",
          "type": "address"
        },
        {
          "indexed": true,
          "internalType": "address",
          "name": "newOwner",
          "type": "address"
        }
      ],
      "name": "OwnershipTransferred",
      "type": "event"
    },
    {
      "anonymous": false,
      "inputs": [
        {
          "indexed": true,
          "internalType": "address",
          "name": "implementation",
          "type": "address"
        }
      ],
      "name": "Upgraded",
      "type": "event"
    },
    {
      "inputs": [],
      "name": "UPGRADE_INTERFACE_VERSION",
      "outputs": [
        {
          "internalType": "string",
          "name": "",
          "type": "string"
        }
      ],
      "stateMutability": "view",
      "type": "function"
    },
    {
      "inputs": [
        {
          "internalType": "address[]",
          "name": "users",
          "type": "address[]"
        }
      ],
      "name": "blockAddresses",
      "outputs": [],
      "stateMutability": "nonpayable",
      "type": "function"
    },
    {
      "inputs": [
        {
          "internalType": "address",
          "name": "",
          "type": "address"
        }
      ],
      "name": "blocklist",
      "outputs": [
        {
          "internalType": "bool",
          "name": "",
          "type": "bool"
        }
      ],
      "stateMutability": "view",
      "type": "function"
    },
    {
      "inputs": [
        {
          "internalType": "address",
          "name": "_owner",
          "type": "address"
        },
        {
          "internalType": "uint256",
          "name": "_amount",
          "type": "uint256"
        }
      ],
      "name": "burn",
      "outputs": [],
      "stateMutability": "nonpayable",
      "type": "function"
    },
    {
      "inputs": [],
      "name": "claim",
      "outputs": [],
      "stateMutability": "nonpayable",
      "type": "function"
    },
    {
      "inputs": [],
      "name": "claimDeadline",
      "outputs": [
        {
          "internalType": "uint64",
          "name": "",
          "type": "uint64"
        }
      ],
      "stateMutability": "view",
      "type": "function"
    },
    {
      "inputs": [],
      "name": "claimRemaining",
      "outputs": [],
      "stateMutability": "nonpayable",
      "type": "function"
    },
    {
      "inputs": [],
      "name": "createSnapshotToken",
      "outputs": [],
      "stateMutability": "nonpayable",
      "type": "function"
    },
    {
      "inputs": [
        {
          "internalType": "address",
          "name": "initialOwner",
          "type": "address"
        },
        {
          "internalType": "contract IMiniMeToken",
          "name": "_token",
          "type": "address"
        },
        {
          "internalType": "contract IERC20[]",
          "name": "_redeemableTokens",
          "type": "address[]"
        },
        {
          "internalType": "uint64",
          "name": "_claimDeadline",
          "type": "uint64"
        }
      ],
      "name": "initialize",
      "outputs": [],
      "stateMutability": "nonpayable",
      "type": "function"
    },
    {
      "inputs": [],
      "name": "owner",
      "outputs": [
        {
          "internalType": "address",
          "name": "",
          "type": "address"
        }
      ],
      "stateMutability": "view",
      "type": "function"
    },
    {
      "inputs": [],
      "name": "parentToken",
      "outputs": [
        {
          "internalType": "contract IMiniMeToken",
          "name": "",
          "type": "address"
        }
      ],
      "stateMutability": "view",
      "type": "function"
    },
    {
      "inputs": [],
      "name": "proxiableUUID",
      "outputs": [
        {
          "internalType": "bytes32",
          "name": "",
          "type": "bytes32"
        }
      ],
      "stateMutability": "view",
      "type": "function"
    },
    {
      "inputs": [
        {
          "internalType": "uint256",
          "name": "",
          "type": "uint256"
        }
      ],
      "name": "redeemableTokens",
      "outputs": [
        {
          "internalType": "contract IERC20",
          "name": "",
          "type": "address"
        }
      ],
      "stateMutability": "view",
      "type": "function"
    },
    {
      "inputs": [],
      "name": "renounceOwnership",
      "outputs": [],
      "stateMutability": "nonpayable",
      "type": "function"
    },
    {
      "inputs": [
        {
          "internalType": "address[]",
          "name": "from",
          "type": "address[]"
        }
      ],
      "name": "startClaim",
      "outputs": [],
      "stateMutability": "nonpayable",
      "type": "function"
    },
    {
      "inputs": [],
      "name": "state",
      "outputs": [
        {
          "internalType": "enum State",
          "name": "",
          "type": "uint8"
        }
      ],
      "stateMutability": "view",
      "type": "function"
    },
    {
      "inputs": [],
      "name": "token",
      "outputs": [
        {
          "internalType": "contract IMiniMeToken",
          "name": "",
          "type": "address"
        }
      ],
      "stateMutability": "view",
      "type": "function"
    },
    {
      "inputs": [
        {
          "internalType": "address",
          "name": "newOwner",
          "type": "address"
        }
      ],
      "name": "transferOwnership",
      "outputs": [],
      "stateMutability": "nonpayable",
      "type": "function"
    },
    {
      "inputs": [
        {
          "internalType": "address[]",
          "name": "users",
          "type": "address[]"
        }
      ],
      "name": "unblockAddresses",
      "outputs": [],
      "stateMutability": "nonpayable",
      "type": "function"
    },
    {
      "inputs": [
        {
          "internalType": "address",
          "name": "newImplementation",
          "type": "address"
        },
        {
          "internalType": "bytes",
          "name": "data",
          "type": "bytes"
        }
      ],
      "name": "upgradeToAndCall",
      "outputs": [],
      "stateMutability": "payable",
      "type": "function"
    }
  ],
  "bytecode": "0x60a060405230608052348015610013575f5ffd5b5061001c610021565b6100d3565b7ff0c57e16840df040f15088dc2f81fe391c3923bec73e23a9662efc9c229c6a00805468010000000000000000900460ff16156100715760405163f92ee8a960e01b815260040160405180910390fd5b80546001600160401b03908116146100d05780546001600160401b0319166001600160401b0390811782556040519081527fc7f505b2f371ae2175ee4913f4499e1f2633a7b5936321eed1cdaeb6115181d29060200160405180910390a15b50565b608051611a7c6100f95f395f818161102701528181611050015261118f0152611a7c5ff3fe60806040526004361061011b575f3560e01c8063ad3cb1cc1161009d578063e5c7160b11610062578063e5c7160b1461033e578063f2fde38b1461037c578063f508ee5b1461039b578063f5af5c5d146103ba578063fc0c546a146103d9575f5ffd5b8063ad3cb1cc14610295578063b00b10a4146102d2578063c01c1ca3146102e6578063c19d93fb146102fa578063c64c88491461031f575f5ffd5b806380a54001116100e357806380a54001146101c157806385d4787b146101fc5780638da5cb5b1461021b5780639b0e2e86146102575780639dc29fac14610276575f5ffd5b80633ba86c441461011f5780634e71d92d146101625780634f1ef2861461017857806352d1902d1461018b578063715018a6146101ad575b5f5ffd5b34801561012a575f5ffd5b5060015461014590600160a01b90046001600160401b031681565b6040516001600160401b0390911681526020015b60405180910390f35b34801561016d575f5ffd5b506101766103f8565b005b61017661018636600461166b565b61072b565b348015610196575f5ffd5b5061019f61074a565b604051908152602001610159565b3480156101b8575f5ffd5b50610176610765565b3480156101cc575f5ffd5b505f546101e49061010090046001600160a01b031681565b6040516001600160a01b039091168152602001610159565b348015610207575f5ffd5b50610176610216366004611710565b610778565b348015610226575f5ffd5b507f9016d09d72d40fdae2fd8ceac6b6234c7706214fd39c1cd1e609a0528c199300546001600160a01b03166101e4565b348015610262575f5ffd5b50610176610271366004611710565b610846565b348015610281575f5ffd5b5061017661029036600461177f565b61090e565b3480156102a0575f5ffd5b506102c5604051806040016040528060058152602001640352e302e360dc1b81525081565b60405161015991906117a9565b3480156102dd575f5ffd5b506101766109c0565b3480156102f1575f5ffd5b50610176610ae9565b348015610305575f5ffd5b505f546103129060ff1681565b60405161015991906117f2565b34801561032a575f5ffd5b50610176610339366004611710565b610c41565b348015610349575f5ffd5b5061036c610358366004611818565b60036020525f908152604090205460ff1681565b6040519015158152602001610159565b348015610387575f5ffd5b50610176610396366004611818565b610deb565b3480156103a6575f5ffd5b506101766103b536600461184e565b610e2d565b3480156103c5575f5ffd5b506101e46103d4366004611937565b610f95565b3480156103e4575f5ffd5b506001546101e4906001600160a01b031681565b60025f5460ff166003811115610410576104106117de565b1461042e57604051636416bf0f60e11b815260040160405180910390fd5b335f9081526003602052604090205460ff161561045e5760405163524929c760e01b815260040160405180910390fd5b6001546040516370a0823160e01b81523360048201525f916001600160a01b0316906370a0823190602401602060405180830381865afa1580156104a4573d5f5f3e3d5ffd5b505050506040513d601f19601f820116820180604052508101906104c8919061194e565b90505f60015f9054906101000a90046001600160a01b03166001600160a01b03166318160ddd6040518163ffffffff1660e01b8152600401602060405180830381865afa15801561051b573d5f5f3e3d5ffd5b505050506040513d601f19601f8201168201806040525081019061053f919061194e565b90505f5f5f845f036105645760405163b7beca1d60e01b815260040160405180910390fd5b5f5b60025481101561065b576002818154811061058357610583611965565b5f918252602090912001546040516370a0823160e01b81523060048201526001600160a01b03909116906370a0823190602401602060405180830381865afa1580156105d1573d5f5f3e3d5ffd5b505050506040513d601f19601f820116820180604052508101906105f5919061194e565b915084610602838861198d565b61060c91906119a4565b935061061884846119c3565b925083156106535761065333856002848154811061063857610638611965565b5f918252602090912001546001600160a01b03169190610fbd565b600101610566565b50815f0361067c576040516343cc6e4560e01b815260040160405180910390fd5b6001546040516369e73bff60e11b8152336004820152602481018790526001600160a01b039091169063d3ce77fe906044016020604051808303815f875af11580156106ca573d5f5f3e3d5ffd5b505050506040513d601f19601f820116820180604052508101906106ee91906119d6565b5060405185815233907f47cee97cb7acd717b3c0aa1435d004cd5b3c8c57d70dbceb4e4458bbd60e39d49060200160405180910390a25050505050565b61073361101c565b61073c826110c0565b61074682826110c8565b5050565b5f610753611184565b505f516020611a275f395f51905f5290565b61076d6111cd565b6107765f611228565b565b6107806111cd565b5f5b8181101561084157600160035f8585858181106107a1576107a1611965565b90506020020160208101906107b69190611818565b6001600160a01b0316815260208101919091526040015f20805460ff19169115159190911790558282828181106107ef576107ef611965565b90506020020160208101906108049190611818565b6001600160a01b03167f71fa9c99da9552de60a9ccf693f5a91456cbb8c205c8e532b1f55339903543cf60405160405180910390a2600101610782565b505050565b61084e6111cd565b5f5b81811015610841575f60035f85858581811061086e5761086e611965565b90506020020160208101906108839190611818565b6001600160a01b0316815260208101919091526040015f20805460ff19169115159190911790558282828181106108bc576108bc611965565b90506020020160208101906108d19190611818565b6001600160a01b03167f385b21b54e2348e690dec29e9741026142b02eaabfcc2fcb676cebcb7cd1653460405160405180910390a2600101610850565b6109166111cd565b60015f5460ff16600381111561092e5761092e6117de565b1461094c57604051635bcca2f360e11b815260040160405180910390fd5b6001546040516369e73bff60e11b81526001600160a01b038481166004830152602482018490529091169063d3ce77fe906044016020604051808303815f875af115801561099c573d5f5f3e3d5ffd5b505050506040513d601f19601f8201168201806040525081019061084191906119d6565b6109c86111cd565b60015f5460ff1660038111156109e0576109e06117de565b146109fe57604051635bcca2f360e11b815260040160405180910390fd5b5f8054604051636638c08760e01b815260a06004820152601560a482015274151150c814da1d5d191bdddb8814db985c1cda1bdd605a1b60c48201526012602482015260e06044820152600760e4820152660544543534e41560cc1b610104820152436064820152608481019290925261010090046001600160a01b031690636638c08790610124016020604051808303815f875af1158015610aa3573d5f5f3e3d5ffd5b505050506040513d601f19601f82011682018060405250810190610ac791906119f5565b600180546001600160a01b0319166001600160a01b0392909216919091179055565b610af16111cd565b60025f5460ff166003811115610b0957610b096117de565b14610b2757604051636416bf0f60e11b815260040160405180910390fd5b600154600160a01b90046001600160401b0316421015610b5a576040516313166da160e01b815260040160405180910390fd5b5f5b600254811015610c0a57610c023360028381548110610b7d57610b7d611965565b5f918252602090912001546040516370a0823160e01b81523060048201526001600160a01b03909116906370a0823190602401602060405180830381865afa158015610bcb573d5f5f3e3d5ffd5b505050506040513d601f19601f82011682018060405250810190610bef919061194e565b6002848154811061063857610638611965565b600101610b5c565b505f805460ff1916600317815560405133917ffe1dbbfc69480eb67c72308db15c1104586dac34d43ef78cda6c4851dbb254b591a2565b610c496111cd565b6001546001600160a01b03161580610c77575060015f5460ff166003811115610c7457610c746117de565b14155b15610c9557604051631c17e3b760e31b815260040160405180910390fd5b5f5b600254811015610dda575f5b82811015610dd1575f60028381548110610cbf57610cbf611965565b5f918252602090912001546001600160a01b03166370a08231868685818110610cea57610cea611965565b9050602002016020810190610cff9190611818565b6040516001600160e01b031960e084901b1681526001600160a01b039091166004820152602401602060405180830381865afa158015610d41573d5f5f3e3d5ffd5b505050506040513d601f19601f82011682018060405250810190610d65919061194e565b90508015610dc857610dc8858584818110610d8257610d82611965565b9050602002016020810190610d979190611818565b308360028781548110610dac57610dac611965565b5f918252602090912001546001600160a01b0316929190611298565b50600101610ca3565b50600101610c97565b50505f805460ff1916600217905550565b610df36111cd565b6001600160a01b038116610e2157604051631e4fbdf760e01b81525f60048201526024015b60405180910390fd5b610e2a81611228565b50565b5f610e366112d7565b805490915060ff600160401b82041615906001600160401b03165f81158015610e5c5750825b90505f826001600160401b03166001148015610e775750303b155b905081158015610e85575080155b15610ea35760405163f92ee8a960e01b815260040160405180910390fd5b845467ffffffffffffffff191660011785558315610ecd57845460ff60401b1916600160401b1785555b610ed689611301565b610ede611312565b5f8054610100600160a81b0319166101006001600160a01b038b16021790558651610f109060029060208a019061159c565b506001805467ffffffffffffffff60a01b1916600160a01b6001600160401b038916021781555f805460ff1916828002179055508315610f8a57845460ff60401b19168555604051600181527fc7f505b2f371ae2175ee4913f4499e1f2633a7b5936321eed1cdaeb6115181d29060200160405180910390a15b505050505050505050565b60028181548110610fa4575f80fd5b5f918252602090912001546001600160a01b0316905081565b6040516001600160a01b0383811660248301526044820183905261084191859182169063a9059cbb906064015b604051602081830303815290604052915060e01b6020820180516001600160e01b03838183161783525050505061131a565b306001600160a01b037f00000000000000000000000000000000000000000000000000000000000000001614806110a257507f00000000000000000000000000000000000000000000000000000000000000006001600160a01b03166110965f516020611a275f395f51905f52546001600160a01b031690565b6001600160a01b031614155b156107765760405163703e46dd60e11b815260040160405180910390fd5b610e2a6111cd565b816001600160a01b03166352d1902d6040518163ffffffff1660e01b8152600401602060405180830381865afa925050508015611122575060408051601f3d908101601f1916820190925261111f9181019061194e565b60015b61114a57604051634c9c8ce360e01b81526001600160a01b0383166004820152602401610e18565b5f516020611a275f395f51905f52811461117a57604051632a87526960e21b815260048101829052602401610e18565b6108418383611386565b306001600160a01b037f000000000000000000000000000000000000000000000000000000000000000016146107765760405163703e46dd60e11b815260040160405180910390fd5b336111ff7f9016d09d72d40fdae2fd8ceac6b6234c7706214fd39c1cd1e609a0528c199300546001600160a01b031690565b6001600160a01b0316146107765760405163118cdaa760e01b8152336004820152602401610e18565b7f9016d09d72d40fdae2fd8ceac6b6234c7706214fd39c1cd1e609a0528c19930080546001600160a01b031981166001600160a01b03848116918217845560405192169182907f8be0079c531659141344cd1fd0a4f28419497f9722a3daafe3b4186f6b6457e0905f90a3505050565b6040516001600160a01b0384811660248301528381166044830152606482018390526112d19186918216906323b872dd90608401610fea565b50505050565b5f807ff0c57e16840df040f15088dc2f81fe391c3923bec73e23a9662efc9c229c6a005b92915050565b6113096113db565b610e2a81611400565b6107766113db565b5f5f60205f8451602086015f885af180611339576040513d5f823e3d81fd5b50505f513d9150811561135057806001141561135d565b6001600160a01b0384163b155b156112d157604051635274afe760e01b81526001600160a01b0385166004820152602401610e18565b61138f82611408565b6040516001600160a01b038316907fbc7cd75a20ee27fd9adebab32041f755214dbc6bffa90cc0225b39da2e5c2d3b905f90a28051156113d357610841828261146b565b6107466114dd565b6113e36114fc565b61077657604051631afcd79f60e31b815260040160405180910390fd5b610df36113db565b806001600160a01b03163b5f0361143d57604051634c9c8ce360e01b81526001600160a01b0382166004820152602401610e18565b5f516020611a275f395f51905f5280546001600160a01b0319166001600160a01b0392909216919091179055565b60605f5f846001600160a01b0316846040516114879190611a10565b5f60405180830381855af49150503d805f81146114bf576040519150601f19603f3d011682016040523d82523d5f602084013e6114c4565b606091505b50915091506114d4858383611515565b95945050505050565b34156107765760405163b398979f60e01b815260040160405180910390fd5b5f6115056112d7565b54600160401b900460ff16919050565b60608261152a5761152582611574565b61156d565b815115801561154157506001600160a01b0384163b155b1561156a57604051639996b31560e01b81526001600160a01b0385166004820152602401610e18565b50805b9392505050565b80511561158357805160208201fd5b60405163d6bda27560e01b815260040160405180910390fd5b828054828255905f5260205f209081019282156115ef579160200282015b828111156115ef57825182546001600160a01b0319166001600160a01b039091161782556020909201916001909101906115ba565b506115fb9291506115ff565b5090565b5b808211156115fb575f8155600101611600565b6001600160a01b0381168114610e2a575f5ffd5b634e487b7160e01b5f52604160045260245ffd5b604051601f8201601f191681016001600160401b038111828210171561166357611663611627565b604052919050565b5f5f6040838503121561167c575f5ffd5b823561168781611613565b915060208301356001600160401b038111156116a1575f5ffd5b8301601f810185136116b1575f5ffd5b80356001600160401b038111156116ca576116ca611627565b6116dd601f8201601f191660200161163b565b8181528660208385010111156116f1575f5ffd5b816020840160208301375f602083830101528093505050509250929050565b5f5f60208385031215611721575f5ffd5b82356001600160401b03811115611736575f5ffd5b8301601f81018513611746575f5ffd5b80356001600160401b0381111561175b575f5ffd5b8560208260051b840101111561176f575f5ffd5b6020919091019590945092505050565b5f5f60408385031215611790575f5ffd5b823561179b81611613565b946020939093013593505050565b602081525f82518060208401528060208501604085015e5f604082850101526040601f19601f83011684010191505092915050565b634e487b7160e01b5f52602160045260245ffd5b602081016004831061181257634e487b7160e01b5f52602160045260245ffd5b91905290565b5f60208284031215611828575f5ffd5b813561156d81611613565b80356001600160401b0381168114611849575f5ffd5b919050565b5f5f5f5f60808587031215611861575f5ffd5b843561186c81611613565b9350602085013561187c81611613565b925060408501356001600160401b03811115611896575f5ffd5b8501601f810187136118a6575f5ffd5b80356001600160401b038111156118bf576118bf611627565b8060051b6118cf6020820161163b565b9182526020818401810192908101908a8411156118ea575f5ffd5b6020850194505b83851015611918578435925061190683611613565b828252602094850194909101906118f1565b809650505050505061192c60608601611833565b905092959194509250565b5f60208284031215611947575f5ffd5b5035919050565b5f6020828403121561195e575f5ffd5b5051919050565b634e487b7160e01b5f52603260045260245ffd5b634e487b7160e01b5f52601160045260245ffd5b80820281158282048414176112fb576112fb611979565b5f826119be57634e487b7160e01b5f52601260045260245ffd5b500490565b808201808211156112fb576112fb611979565b5f602082840312156119e6575f5ffd5b8151801515811461156d575f5ffd5b5f60208284031215611a05575f5ffd5b815161156d81611613565b5f82518060208501845e5f92019182525091905056fe360894a13ba1a3210667c828492db98dca3e2076cc3735a920a3ca505d382bbca26469706673582212200b52cf58eee82903bc1c1c9c535a1d33f2bb5b5adbf8271e664f4b1cb3f8e7d464736f6c634300081c0033",
  "linkReferences": {},
  "deployedLinkReferences": {},
  "immutableReferences": {
    "482": [
      {
        "length": 32,
        "start": 4135
      },
      {
        "length": 32,
        "start": 4176
      },
      {
        "length": 32,
        "start": 4495
      }
    ]
  },
  "inputSourceName": "project/contracts/TECClaim.sol",
  "buildInfoId": "solc-0_8_28-f73d217466d623d216ae5ebb80b2d06d9a688b91"
}